:020000040000FA
:020000001028C6
:040002000034003492
:06000A0082073F340634BA
:100010005B344F3466346D347D340734FF346F34D1
:10002000831685018601831285018C018D018E0165
:100030002B288C0A0A300C02031D2B288C018D0AF8
:100040000A300D02031D2B288D018E0A0A300E0284
:10005000031D2B288E0114308F000C08052005107D
:100060008600051542200D0805200511860085141F
:1000700042200E08052085108600051442208F0BB3
:1000800019282D28FF30900005309100910B46284B
:06009000900B442808005B
:02400E00F13F80
:00000001FF
