:020000040000FA
:060000000A128A11FC2F18
:100E6C00831603138601831203138601FF30831646
:100E7C0003138800831203138801081C462F472F85
:100E8C00642F88184A2F4B2F642F08194E2F4F2F81
:100E9C00642F8819522F532F642F0610861470302C
:100EAC00F2009C30F1002130F000F00B5B2FF10BC5
:100EBC005B2FF20B5B2F8312031386100818672F1E
:100ECC00682F972F881C6B2F6C2F972F08196F2F5B
:100EDC00702F972F8819732F742F972F0614861045
:100EEC00061186157030F2009C30F1002130F000B4
:100EFC00F00B7E2FF10B7E2FF20B7E2F8312031340
:100F0C0086118430F200E630F100E230F000F00B94
:100F1C008D2FF10B8D2FF20B8D2F000083120313ED
:100F2C00061008189A2F9B2FCA2F88189E2F9F2FB8
:100F3C00CA2F081DA22FA32FCA2F8819A62FA72F9F
:100F4C00CA2F06158611061286167030F2009C30D8
:100F5C00F1002130F000F00BB12FF10BB12FF20B9F
:100F6C00B12F8312031386128430F200E630F100A5
:100F7C00E230F000F00BC02FF10BC02FF20BC02FA2
:100F8C0000008312031306110818CD2FCE2F432F08
:100F9C008818D12FD22F432F0819D52FD62F432F96
:100FAC00881DD92FDA2F432F061686127030F200C7
:100FBC009C30F1002130F000F00BE22FF10BE22F0E
:100FCC00F20BE22F8430F200E630F100E230F00058
:100FDC00F00BEE2FF10BEE2FF20BEE2F0000831225
:100FEC0003130612432F0A128A11002883010A12D6
:040FFC008A11362FF1
:02400E00F13F80
:00000001FF
