:020000040000FA
:060000000A128A11FC2F18
:100F3200831603138601831203138601FF3083167F
:100F420003138800831203138801081CA92FAA2FF8
:100F5200B92F8818AD2FAE2FB92F0819B12FB22F84
:100F6200B92F8819B52FB62FB92F061086148610FF
:100F72000818BC2FBD2FCF2F881CC02FC12FCF2FF9
:100F82000819C42FC52FCF2F8819C82FC92FCF2FCB
:100F92000614861006118615861106100818D22F1F
:100FA200D32FE52F8818D62FD72FE52F081DDA2F3C
:100FB200DB2FE52F8819DE2FDF2FE52F061586118F
:100FC20006128616861206110818E82FE92FA62F98
:100FD2008818EC2FED2FA62F0819F02FF12FA62F2E
:100FE200881DF42FF52FA62F061686120612A62F9D
:0E0FF2000A128A11002883010A128A11992F0F
:00000001FF
