:020000040000FA
:08000000803102288731ED2F49
:100010000800F20020008E100E147208F000073065
:10002000F036890B102870080139F100F10EF10D3E
:100030000E087106DF3971068E007208F000063076
:10004000F036890B202870080139F100F10E0E08F6
:100050007106EF3971068E007208F0000530F03637
:10006000890B2F2870080139F100F10DF10DF10D08
:100070000E087106F73971068E007208F000043020
:10008000F036890B402870080139F100F10DF10DAF
:100090000E087106FB3971068E000330890B4E285D
:1000A000000020008E140D30890B54280000200021
:1000B0008E107208F0000330F036890B5C2870084F
:1000C0000139F100F10EF10D0E087106DF397106EC
:1000D0008E007208F0000230F036890B6C28700830
:1000E0000139F100F10E0E087106EF3971068E002C
:1000F00072360139F000F00DF00DF00D0E087006AB
:10010000F73970068E0072080139F000F00DF00D1D
:100110000E087006FB3970068E000330890B8E289E
:10012000000020008E140D30890B94280000200060
:100130008E100D30890B9A2800003A30F0002330E1
:10014000890BA028F00BA028000008002100C8019E
:10015000C901C401C5011908873970389900FC30FC
:100160009905203023008C00203021008C001D08D0
:10017000833910389D001E11FC309E0570309E049E
:100180009E171D148A31AF22803101308A31162228
:1001900080310C308A311622803105302100AA00CE
:1001A0000F30A900F130890BD328A90BD328AA0B53
:1001B000D32821009D149D18DE28DF28DB281C0889
:1001C000A900AA012908C6002A08C7004708AA00F2
:1001D0004608A9002908AA00A9012908C6002A087A
:1001E000C7001B084607A90047080318470AAA00CA
:1001F0002908C6002A08C7004608F0004708F10091
:10020000890D893B8909F200F30001308B314A23C3
:10021000803173082000A7007208A6007108A500AD
:100220007008A4004230A300C830A2000030A10032
:100230000030A00085319625803120002308C100C0
:100240002208C0002108BF002008BE004430BD00C5
:100250008030BC000030BB000030BA008331E223A4
:10026000803120003D08D7003C08D6003B08D5006F
:100270003A08D4008931A12180312000550821009D
:10028000C900200054082100C80044302000BD00EF
:100290008030BC000030BB000030BA004030A3000A
:1002A000A030A2000030A1000030A00021004608CC
:1002B000F0004708F100890D893B8909F200F3003D
:1002C00001308B314A23803173082000A700720867
:1002D000A6007108A5007008A4008531962580311C
:1002E00020002308C1002208C0002108BF00200808
:1002F000BE008331E223803120003D082100C3008D
:1003000020003C082100C20020003B082100C10061
:1003100020003A082100C0004908803AA900803036
:100320002902031D95291530480203189829992997
:100330009F2904302100C4000030C500DB292100C2
:100340004908803AA90080302902031DA9292930D3
:1003500048020318AC29AD29B32903302100C40099
:100360000030C500DB2921004908803AA90080300F
:100370002902031DBD293D3048020318C029C129A7
:10038000C72902302100C4000030C500DB2921004C
:100390004908803AA90080302902031DD129513033
:1003A00048020318D429D529DB2901302100C400D3
:1003B0000030C500DB2900302000EB009830EC0055
:1003C000210049082000EE00210048082000ED002F
:1003D000AC30883132208031F301F30AAC30210097
:1003E000A9002908F40001308831B0208031423062
:1003F0002000A300C830A2000030A1000030A000FF
:10040000210043082000A700210042082000A60088
:10041000210041082000A500210040082000A40080
:1004200085319625803110302000EB009830EC00AB
:10043000210045082000EE00210044082000ED00C6
:10044000AC30883132208031F301F30AAC30210026
:10045000A9002908F40002308831B02080310D3025
:100460002100AA002D30A900D730890B352AA90B0D
:10047000352AAA0B352A0032D928803102282000DB
:10048000E2004E0886008701403FD000413FD10086
:1004900050088400510885001200253A031D512A96
:1004A000522ABE2B4E088600870101308107413158
:1004B0000318810A2100CC01CD01D001D101FF3008
:1004C000CE00FF30CF002000DE01DF01A82A21008E
:1004D000501420004E088600870101308107413109
:1004E0000318810AA82A2100D014692A2100501576
:1004F000692A2100D015692A21005016692A013085
:10050000DE000030DF00A82A4E0886008701403F49
:10051000D000413FD10050088400510885000008F8
:10052000D200D3015308003A0319972A7F2A5208B0
:10053000203A0319792A033A03197C2A083A031945
:10054000762A063A0319672A1D3A0319732A7F2A65
:100550005E085F040319AD2AAE2A842A2100501CCC
:10056000B22AB32AB72AFD30D005FF30D1052000CA
:100570004E0886008701403FD000413FD10050081F
:1005800084005108850012002A3A031DC82AC92A8E
:10059000E92A4E088600870101308107413103189E
:1005A000810A4F0886008701010884008501023016
:1005B0008107003F2100CC00013FCD00CD1FE12A83
:1005C000E22A2B2B5014CC09CD09CC0A0319CD0AF1
:1005D0002B2B4E0886008701403FF600413FF70075
:1005E0008B31F623823177082100CD007608CC00CC
:1005F000012B4E0886008701013081074131031825
:10060000810A20004E0886008701403FD000413F0C
:10061000D10050088400510885000008D03ED20067
:10062000FF3003180030D300003053020A300319A2
:100630005202031C1C2B1E2B01301F2B0030D40038
:10064000D5015408E0005508E10060086104031D6D
:100650002A2B2B2BF92A20004E0886008701403FC9
:10066000D000413FD100500884005108850012009D
:10067000643A03193C2B3D2B4E2B4E088600870114
:10068000403FD000413FD100500884005108850010
:100690001200693A031D4D2B4E2B892B4E08860004
:1006A00087010130810741310318810A4F08860014
:1006B000870101088400850102308107003FD000D6
:1006C000013FD1005008D6005108D700890D893B61
:1006D0008909D800D900DA00DB00DC00DD0056080B
:1006E000B0005708B1005808B2005908B3005A08C2
:1006F000B4005B08B5005C08B6005D08B70062088E
:100700008E319026823120003108CF003008CE0093
:10071000E12B4E0886008701403FD000413FD100C9
:1007200050088400510885001200253A031D992BBA
:100730009A2BB32B4E088600870101308107413187
:100740000318810A2530F0000030F1006208D00063
:100750005008F2008831F920823101302000CE00AB
:100760000030CF00E12B4E08860087010130810761
:1007700041310318810ACE01CF01E12B4E088600DA
:100780008701403FD000413FD1005008840051080C
:1007900085000008D200D3015208F0005308F10090
:1007A0006208D4005408F2008831F9208231200018
:1007B0004E08860087010130810741310318810A04
:1007C000AD2B0800200041088039C2004208CB0050
:1007D0004135C2004208D200C01FEF2BF02BF12B95
:1007E000521452080319F52BF62B062C520A031D3E
:1007F000FA2BFB2B032C0030C1000030C00000306E
:10080000BF000030BE00C017C1010E2C0030C10077
:100810000030C0000030BF000030BE003D0880390D
:10082000C2004208CB063D35C2004208D300BC1FBF
:100830001A2C1B2C1C2C531453080319202C212C6C
:10084000312C530A031D252C262C2E2C0030BD00E4
:100850000030BC000030BB000030BA00BC17BD0146
:10086000392C0030BD000030BC000030BB0000302F
:10087000BA003D083C043B043A04031D402C412CC3
:100880005A2C0030C1000030C0000030BF000030E2
:10089000BE008030C0047F30C1044B08C200420853
:1008A000C1044108BD004008BC003F08BB003E0831
:1008B000BA00952D5208031D5E2C5F2C682C003069
:1008C000BD000030BC000030BB000030BA00952DE8
:1008D0005208C200C3014308C50053084202C400C5
:1008E000031CC50344087F3ECC000030453DCD00CD
:1008F0004108CA004008C9003F08C8003E08C700B8
:100900000030C1000030C0000030BF000030BE0029
:100910000030D1000030D0000030CF000030CE00D9
:10092000D301D02C53080319962C972CB12C0130ED
:10093000C735C80DC90DCA0D890B982C0130BE35BD
:10094000BF0DC00DC10D890B9F2CD11FA82CA92C48
:10095000AA2C3E140130CE35CF0DD00DD10D890B10
:10096000AB2C3D084A02031DBF2C3C084902031D65
:10097000BF2C3B084802031DBF2C3A084702031C4A
:10098000C22CC32CCC2C51173A08C7023B08C83BD9
:100990003C08C93B3D08CA3B0130C2004208D307AE
:1009A0001A305302031CD52CD62C922C4A08490429
:1009B000480447040319DD2CDE2CF72C4E14F72CC9
:1009C0000130BE35BF0DC00DC10D890BE12CD11F0B
:1009D000EA2CEB2CEC2C3E140130CE35CF0DD00D93
:1009E000D10D890BED2CFF30CC07FF30CD3DC01F62
:1009F000FA2CFB2CE02CD301D11FFF2C002D1C2D39
:100A0000FF304E05C200FF304F05C300FF305005D8
:100A1000C4007F305105C500450844044304420426
:100A20000319132D142D172DD301D30A1C2D3E1C91
:100A30001A2D1B2D1C2D142D53080319202D212D8B
:100A4000492D0130BE070030BF3D0030C03D0030B1
:100A5000C13D411C2C2D2D2D492D3E08C2003F08C3
:100A6000C3004008C4004108C5000130C600C537B6
:100A7000C40CC30CC20CC60B372D4508C10044087A
:100A8000C0004308BF004208BE000130CC07003060
:100A9000CD3D4D08803AC20080304202031D522DE8
:100AA000FF304C02031C552D562D632DFF302000C6
:100AB000CC000030CD000030C1000030C00000305C
:100AC000BF000030BE0020004D08803AC2008030D8
:100AD0004202031D6D2D01304C020318702D712D43
:100AE0007D2D2000CC01CD010030C1000030C000C0
:100AF0000030BF000030BE00CB0120004C08C20017
:100B00004208D200521C852D862D882DC0178C2DB1
:100B10007F30C2004208C0055236C2004208C10000
:100B20004B08C2004208C104512C080020002308D1
:100B30008039A8002808AD002335A8002808B30094
:100B4000A21FA32DA42DA52D331433080319A92DFD
:100B5000AA2DB92D330A031DAE2DAF2DB72D0030B0
:100B6000A3000030A2000030A1000030A000A217B6
:100B7000C12D0030A3000030A2000030A1000030E1
:100B8000A00027088039A8002808AD062735A8004E
:100B90002808B200A61FCD2DCE2DCF2D321432083D
:100BA0000319D32DD42DE32D320A031DD82DD92DB1
:100BB000E12D0030A7000030A6000030A500003075
:100BC000A400A617EB2D0030A7000030A6000030CF
:100BD000A5000030A40032080319EF2DF02DF52DEB
:100BE0003308031DF42DF52DFE2D0030A300003039
:100BF000A2000030A1000030A000EC2F2008A800C7
:100C00002808F000260888310F208531710820005F
:100C1000B9007008B8003808A800A901AA01AB0102
:100C20002B08B1002A08B0002908AF002808AE0040
:100C30003908A800A901AA01AB012B08B7002A08AE
:100C4000B6002908B5002808B4002108A800280823
:100C5000F000250888310F20853171082000B90087
:100C60007008B8003808A800A901AA01AB0128083B
:100C7000AE072908AF3D2A08B03D2B08B13D390821
:100C8000A800A901AA01AB012808B4072908B53DAD
:100C90002A08B63D2B08B73D2208A8002808F00016
:100CA000240888310F20853171082000B9007008B0
:100CB000B8003808A800A901AA01AB012808AE07AE
:100CC0002908AF3D2A08B03D2B08B13D3908A800DE
:100CD000A901AA01AB012808B4072908B53D2A08D3
:100CE000B63D2B08B73D0830AE35AF0DB00DB10D98
:100CF000890B742E2108A8002808F00024088831E8
:100D00000F20853171082000B9007008B80038083C
:100D1000AE073908AF3D0030B03DB13D2008A80016
:100D20002808F000250888310F208531710820003F
:100D3000B9007008B8003808AE073908AF3D003078
:100D4000B03DB13D0830AE35AF0DB00DB10D890BE2
:100D5000A32E2008A8002808F000240888310F20BE
:100D6000853171082000B9007008B8003808AE0756
:100D70003908AF3D0030B03DB13D2108A80028083A
:100D8000F000260888310F20853171082000B90055
:100D90007008B8003808B4073908B53D0030B63DD2
:100DA000B73D2208A8002808F000250888310F2048
:100DB000853171082000B9007008B8003808B40700
:100DC0003908B53D0030B63DB73D2208A8002808D7
:100DD000F000260888310F20853171082000B90005
:100DE0007008B8003808A8003908A900AA01AB01AA
:100DF0000830A835A90DAA0DAB0D890BF92E2808CE
:100E0000B4072908B53D2A08B63D2B08B73D2E0882
:100E1000A8002F08A9003008AA003108AB0018303C
:100E2000AB36AA0CA90CA80C890B102F2808B40704
:100E30002908B53D2A08B63D2B08B73D0830AE3528
:100E4000AF0DB00DB10D890B1F2F33083207A8006D
:100E5000A901A90D2808823EB800FF30293DB9003C
:100E6000482F0130B435B50DB60DB70D890B322FB3
:100E7000B11F3B2F3C2F3D2F34140130AE35AF0D49
:100E8000B00DB10D890B3E2FFF30B807FF30B93DD3
:100E9000B61F4B2F4C2F312FB201B11F502F512FA6
:100EA0006D2FFF302E05A800FF302F05A900FF3061
:100EB0003005AA007F303105AB002B082A04290435
:100EC00028040319642F652F682FB201B20A6D2F11
:100ED000341C6B2F6C2F6D2F652F32080319712F67
:100EE000722F9A2F0130B4070030B53D0030B63D67
:100EF0000030B73D371C7D2F7E2F9A2F3408A80075
:100F00003508A9003608AA003708AB000130AC004C
:100F1000AB37AA0CA90CA80CAC0B882F2B08B70078
:100F20002A08B6002908B5002808B4000130B8071F
:100F30000030B93D3908803AA80080302802031DEE
:100F4000A32FFF303802031CA62FA72FB12F7F300D
:100F50002000B7008030B6000030B5000030B4008B
:100F6000E02F20003908803AA80080302802031DB5
:100F7000BB2F013038020318BE2FBF2FCA2F0030FD
:100F80002000B7000030B6000030B5000030B400DB
:100F9000AD01E02F20003808A8002808B300FF307A
:100FA000B405FF30B5057F30B6050030B705331CFA
:100FB000DA2FDB2FDC2FB6173336A8002808B7004E
:100FC0002D08A8002808B7043708A3003608A20097
:100FD0003508A1003408A0000800CA3084000030A1
:100FE00085000830883109208731203084000130A5
:100FF0008500203088310920873120008031A628E3
:10101200640080010131890B0A280034F800F401D0
:10102200F5017008F200F3017208F6007308F70088
:10103200781C1C281D2821287608F4077708F53D1E
:101042000130F635F70D890B22280310F80C7808C9
:10105200031D2C282D2819287508F1007408F000AA
:1010620008002100A3006D30FD007D08A2002308C6
:10107200FD007D08A400A501A601A701A80120008A
:101082006C08E4006B08E300A230FD007D08E50077
:10109200A43088317F208831210025082307FD00F4
:1010A2007D0886008701810108002000A300A101BC
:1010B200A2016E282008F900FA017908F0007A08E6
:1010C200F1007808FB007B08F2008831F9208831B2
:1010D20001302000A1070030A23D21082307F900BA
:1010E20079088600013087000108FA007A08A0001A
:1010F2002008031D7D287E285B2808002000E800C8
:101102006408EA006308E9002100CA01CB019D28B6
:101112006930E6006608CE006508E7006708CF0080
:10112200680882313F22883120004E082100CA0718
:1011320020004F082100CB3D2000690884006A0886
:1011420085001200031DA628A728892821004B0824
:101152002000E40021004A082000E3000800F70014
:10116200CA287308803EF5007508F800E028730865
:10117200C03EF5007508F800E0287308943EF500BB
:101182007508F800E0287308D43EF5007508F800E9
:10119200E0287708F500F6017608003A0319D2280C
:1011A200E0287508013A0319B228033A0319B8284E
:1011B200013A0319BE28073A0319C428E02878081F
:1011C2008A3116228831F0287408860087010108C6
:1011D2008031092088310130F5007508F407740860
:1011E200860087010108031DF728F828E528080072
:1011F20072080319FD28FE2803297208031D02291B
:10120200032908297008803108208831472972088B
:10121200033E8600870116000104031911291229D1
:101222002F297208033E86008701403FF300413FA9
:10123200F400720A86008701403FF500413FF60044
:101242007608803AF7007408803A7702031D2B294A
:101252007308750203182E292F2947297008F300F5
:10126200720886008701720A84008501000801075E
:10127200F40074088600870173088100720A8600F0
:1012820087010130810741310318810A08002000DB
:10129200AB002100501C4E294F29582920002B0851
:1012A200FC007C08F800240888315620893120008F
:1012B200A61B5C295D2962292608AA002508A90027
:1012C2006429A901AA01A701A80178292030F00008
:1012D2000030F10020002B08FC007C08F20088316D
:1012E200F920893101302000A7070030A83D2808E5
:1012F200803AFC002A08803A7C02031D82292908D0
:101302002702031C852986296729210050188A296A
:101312008B29942920002B08FC007C08F800240863
:10132200883156208931200024089731A627893137
:10133200200029087007A4002A08713DA5000800B2
:1013420003102000560D570DD8005808DE005E0825
:10135200031DAC29AD29B6290030D7000030D600D4
:101362000030D5000030D400152A5408D8005508A2
:10137200D9005608DA005708DB001F30DB36DA0CDA
:10138200D90CD80C890BBF295808DC005C08DD0099
:10139200D617FF30D405FF30D505FF30D605003013
:1013A200D7059630DE02DE1FD729D829F0295E083C
:1013B200803A973E0318DE29DF29E029AD29013062
:1013C200D736D60CD50CD40C890BE1290130D800C4
:1013D2005808DE07031DEE29EF29E029052A2030EF
:1013E2005E02031CF529F629002AAD290130D43505
:1013F200D50DD60DD70D890BF8290130DE025E0816
:10140200031D042A052AF7295D080319092A0A2A55
:10141200152AD409D509D609D709D40A0319D50A38
:101422000319D60A0319D70A0800F20020008E1009
:101432000E107208F0000730F036890B1D2A700872
:101442000139F100F10EF10D0E087106DF39710656
:101452008E007208F0000630F036890B2D2A7008D3
:101462000139F100F10E0E087106EF3971068E0096
:101472007208F0000530F036890B3C2A70080139F9
:10148200F100F10DF10DF10D0E087106F73971063B
:101492008E007208F0000430F036890B4D2A700875
:1014A2000139F100F10DF10D0E087106FB397106DB
:1014B2008E000330890B5B2A000020008E140D3051
:1014C200890B612A000020008E107208F0000330A0
:1014D200F036890B692A70080139F100F10EF10D1D
:1014E2000E087106DF3971068E007208F0000230B4
:1014F200F036890B792A70080139F100F10E0E08D5
:101502007106EF3971068E0072360139F000F00D66
:10151200F00DF00D0E087006F73970068E00720895
:101522000139F000F00DF00D0E087006FB3970065F
:101532008E000330890B9B2A000020008E140D3090
:10154200890BA12A000020008E103A30F0002330CF
:10155200890BA92AF00BA92A0000080021008E128B
:101562000E128E110E118E100E1020008E120E12FF
:101572008E110E118E100E103A30F3002330890BAB
:10158200C02AF30BC02A00003A30F3002330890B43
:10159200C82AF30BC82A00003A30F3002330890B23
:1015A200D02AF30BD02A00003A30F3002330890B03
:1015B200D82AF30BD82A00003A30F3002330890BE3
:1015C200E02AF30BE02A00003A30F3002330890BC3
:1015D200E82AF30BE82A0000F401F40A20008E1234
:1015E2000E128E150E158E100E108E120E128E15F4
:1015F2000E158E140E100D30890BFD2A00002000EE
:101602008E120E128E150E158E100E103A30F30039
:101612002330890B0A2BF30B0A2B00000130F30055
:101622007308F40704307402031C182B192BEF2AD9
:1016320020008E120E128E150E118E100E108E12AA
:101642000E128E150E118E140E100D30890B272BD3
:10165200000020008E120E128E150E118E100E102A
:101662003A30F3002330890B342BF30B342B000078
:1016720028308A3116228A3110308A3116228A3174
:1016820001308A3116228A310F308A3116228A318C
:101692000800F800780803194F2B502B642BF31F16
:1016A200532B542B642B7009FA007109FB00720949
:1016B200FC007309FD00FA0A0319FB0A0319FC0A6C
:1016C2000319FD0A6C2B7308FD007208FC007108F7
:1016D200FB007008FA007308720471047004031DA1
:1016E200732B742B7D2B0030F3000030F20000309E
:1016F200F1000030F000F52B9630F4007408F90088
:101702008D2B0130F4007408F9070130FD36FC0C12
:10171200FB0CFA0C890B872BFE307D05031D922BE7
:10172200932B822BA72B0130F4007408F9070130A8
:10173200FA070030FB3D0030FC3D0030FD3D01303A
:10174200FD36FC0CFB0CFA0C890BA12BFF307D053E
:10175200031DAC2BAD2B942BB72B0130F9020130BA
:10176200FA35FB0DFC0DFD0D890BB12BFC1BBA2BC1
:10177200BB2BC12B023079020318C02BC12BAE2B1D
:101782007918C42BC52BCD2BFF30FA05FF30FB0592
:101792007F30FC05FF30FD050310F90C7908F400D9
:1017A200F501F601F7011830F435F50DF60DF70DD8
:1017B200890BD52B7408FA047508FB047608FC041F
:1017C2007708FD0478080319E72BE82BED2BF31FAC
:1017D200EB2BEC2BED2BFD177D08F3007C08F200C0
:1017E2007B08F1007A08F00008002000A701A80198
:1017F200A001A101002C0130F6070030F73DA6013F
:10180200A60A76088400770885001200203A031998
:101812000B2C0C2C212C76088400770885000008FC
:10182200F73EF800FF3003180030F900003079026B
:10183200053003197802031C1F2C202C212CA60131
:101842002608F800F9017808A2007908A300220806
:101852002304031D2D2C2E2CFC2B382C0130A00030
:101862000030A1000130F6070030F73D6C2C7608FD
:101872008400770885000008F800F9017908003A29
:101882000319442C6C2C78082B3A0319332C063A92
:1018920003192F2C6C2C7608840077088500000829
:1018A200F8002808F1002708F0000A30F2000030A2
:1018B200F3009731C0278B317108FA007808700263
:1018C200F900031CFA037908303E2000A70000301B
:1018D2007A3DA800332C760884007708850000083A
:1018E200D03EF800FF3003180030F90000307902D2
:1018F2000A3003197802031C7F2C812C0130822CC0
:101902000030FA00FB017A08A4007B08A500240835
:101912002504031D8D2C8E2C4C2C20082104031D24
:10192200932C942CA02C2709F8002809F900F80A16
:101932000319F90A7808F6007908F700A42C280898
:10194200F7002708F6000800F20128308600003070
:101952008700473FF000F01FAF2CB02CD12C2000A5
:10196200A809A909AA09AB09AC09AD09AE09AF09D1
:10197200A80A031DCF2CA90A031DCF2CAA0A031DF6
:10198200CF2CAB0A031DCF2CAC0A031DCF2CAD0A02
:10199200031DCF2CAE0A031DCF2CAF0AF201F20AAF
:1019A2002030860000308700473FF000F01FDA2C1D
:1019B200DB2CFA2C2000A009A109A209A309A40981
:1019C200A509A609A709A00A031DFA2CA10A031D4D
:1019D200FA2CA20A031DFA2CA30A031DFA2CA40A4C
:1019E200031DFA2CA50A031DFA2CA60A031DFA2CC4
:1019F200A70A200020082104220423042404250429
:101A0200260427040319062D072D5A2DF101F10A88
:101A1200162DA035A10DA20DA30DA40DA50DA60D89
:101A2200A70D0130F0007008F107A71F192D1A2D1C
:101A32000A2D27082F02031D382D26082E02031D0A
:101A4200382D25082D02031D382D24082C02031DD4
:101A5200382D23082B02031D382D22082A02031DCC
:101A6200382D21082902031D382D20082802031CC5
:101A72003B2D3C2D4C2D2008A8022108A93B220811
:101A8200AA3B2308AB3B2408AC3B2508AD3B260808
:101A9200AE3B2708AF3BA736A60CA50CA40CA30CA3
:101AA200A20CA10CA00C0130F102031D592D5A2DDC
:101AB2001A2D720803195E2D5F2D7D2DA809A90923
:101AC200AA09AB09AC09AD09AE09AF09A80A031D01
:101AD2007D2DA90A031D7D2DAA0A031D7D2DAB0AAA
:101AE200031D7D2DAC0A031D7D2DAD0A031D7D2D29
:101AF200AE0A031D7D2DAF0A20002808A000290888
:101B0200A1002A08A2002B08A3002C08A4002D087B
:101B1200A5002E08A6002F08A7000800F201203019
:101B2200860000308700473FF000F01F992D9A2D64
:101B3200BB2D2000A009A109A209A309A409A50996
:101B4200A609A709A00A031DB92DA10A031DB92DD3
:101B5200A20A031DB92DA30A031DB92DA40A031D50
:101B6200B92DA50A031DB92DA60A031DB92DA70A71
:101B7200F201F20A2830860000308700473FF00069
:101B8200F01FC42DC52DE82D2000A809A909AA0916
:101B9200AB09AC09AD09AE09AF09A80A031DE42DD2
:101BA200A90A031DE42DAA0A031DE42DAB0A031D95
:101BB200E42DAC0A031DE42DAD0A031DE42DAE0A8B
:101BC200031DE42DAF0A0130F0007008F2067330F5
:101BD2008600003087000830F00000301E00F00B55
:101BE200EF2D2000200821042204230424042504CC
:101BF200260427040319FE2DFF2D5B2EF101F10AA5
:101C02000E2EA035A10DA20DA30DA40DA50DA60D9E
:101C1200A70D0130F0007008F107A71F112E122E38
:101C2200022EF335F40DF50DF60DF70DF80DF90D45
:101C3200FA0D27082F02031D382E26082E02031D37
:101C4200382E25082D02031D382E24082C02031DD0
:101C5200382E23082B02031D382E22082A02031DC8
:101C6200382E21082902031D382E20082802031CC1
:101C72003B2E3C2E4D2E2008A8022108A93B22080B
:101C8200AA3B2308AB3B2408AC3B2508AD3B260806
:101C9200AE3B2708AF3B7314A736A60CA50CA40CC9
:101CA200A30CA20CA10CA00C0130F102031D5A2EB0
:101CB2005B2E122E720803195F2E602E7E2EF30900
:101CC200F409F509F609F709F809F909FA09F30A15
:101CD200031D7E2EF40A031D7E2EF50A031D7E2EA1
:101CE200F60A031D7E2EF70A031D7E2EF80A031D37
:101CF2007E2EF90A031D7E2EFA0A73082000A00028
:101D02007408A1007508A2007608A3007708A40051
:101D12007808A5007908A6007A08A7000800200024
:101D2200BD003008C4003108C5003208C6003308BF
:101D3200C7003408C8003508C9003608CA00370889
:101D4200CB004430860000308700473FB800B81B04
:101D5200AB2EAD2E0130AE2E00302000B900BA01FC
:101D62003908C2003A08C300420843040319BA2ED4
:101D7200BB2ED92EC409C509C609C709C809C90994
:101D8200CA09CB09C40A031DD92EC50A031DD92EBF
:101D9200C60A031DD92EC70A031DD92EC80A031D60
:101DA200D92EC90A031DD92ECA0A031DD92ECB0A60
:101DB2002100CF1BDD2EDE2EE22EFD30D005FF30BE
:101DC200D1054F08803A2000B80080303802031D48
:101DD200ED2E013021004E020318F02EF12EF72EC7
:101DE20001302000BE000030BF00FF2E21004F084E
:101DF2002000BF0021004E082000BE0021004D0837
:101E02002000C10021004C082000C0004208430409
:101E1200031D0C2F0D2F122F2100501D112F122FD9
:101E2200172FFF302000C007FF30C13D1F302000B8
:101E3200CC000030CD002200BF01882FFF302000EF
:101E4200CC07FF30CD3D0A30A000A101A201A301C1
:101E5200A401A501A601A7014408A8004508A900FC
:101E62004608AA004708AB004808AC004908AD0084
:101E72004A08AE004B08AF008C31A5248E312000F9
:101E82002108F4002008F30097318C278E31730863
:101E9200303E2000B8004C08203E8600013087000A
:101EA20038088100FF30BE07FF30BF3DFF30C0075A
:101EB200FF30C13D0A30A000A101A201A301A4018B
:101EC200A501A601A7014408A8004508A9004608E3
:101ED200AA004708AB004808AC004908AD004A0810
:101EE200AE004B08AF008D318F258E3120002008C7
:101EF200C4002108C5002208C6002308C700240820
:101F0200C8002508C9002608CA002708CB002000FF
:101F12004D08803AB80080303802031D922F0130FC
:101F22004C02031C952F962FC32F20004408450412
:101F320046044704480449044A044B04031DA22FE3
:101F4200A32F1F2F3F08803AB80080303802031DAC
:101F5200AC2F01303E020318AF2FB02F1F2F2000ED
:101F62004108803AB80080303802031DBA2F013090
:101F72004002031CBD2FBE2FC32F2100D018C22F39
:101F8200C32F1F2F200042084304031DC92FCA2F4D
:101F9200CF2F2100501DCE2FCF2FEC2FFF3020004E
:101FA200CC07FF30CD3D42084304031DD92FDA2F61
:101FB200DF2F2B30BB000030BC00E32F2D30BB00E5
:101FC2000030BC003B08B8004C08203E86000130BF
:101FD20087003808810020004C08203EB8003808ED
:101FE200A4004108A6004008A5003D088931482107
:0E1FF2008E3120002508B1002408B000080040
:102EE8007008D03EF200FF30713DF30000307302ED
:102EF8000A3003197202031C822F842F0130852F98
:102F08000030F400F5017408F0007508F1000800BD
:102F18007408803AF50080307502031D952F013042
:102F280073020318982F992FA52F7309F5007409B8
:102F3800F600F50A0319F60A7508F3007608F40096
:102F4800A52F0800F4007408F2007208F300B02FEF
:102F58000130F2007208F407740886000130870017
:102F68000108031DB82FB92FAC2F73087402F000A5
:102F7800F101F01BF1030800F401F501701CC52FE5
:102F8800C62FCA2F7208F4077308F53D0130F235D1
:102F9800F30D890BCB2F0130F136F00C890BD02FB4
:102FA80070087104031DD92FDA2FC22F7508F1009C
:102FB8007408F0000800F401F40A20307006710467
:102FC8000319E72FE82FF82F7008F73EF200FF30BB
:102FD800713DF30000307302053003197202031CBF
:102FE800F62FF72FF82FF4017408F200F301720896
:102FF800F0007308F100080050346F347234633401
:1030080065346E34743461346A346534203425345C
:103018003034343464340034233420344C34613450
:103028006D347034733420344F346E342034253486
:083038003034343464340034F8
:020000040001F9
:04000E00C4FFFFFF2D
:00000001FF
