:020000040000FA
:040000000034003494
:06000A0082073F340634BA
:100010005B344F3466346D347D340734FF346F34D1
:10002000831685018601831285018C018D018E0165
:100030002A288C0A0A300C022A288C018D0A0A30E0
:100040000D02031D2A288D018E0A0A300E02031D9F
:100050002A288E0114308F000C0805200510860018
:10006000051541200D080520051186008514412045
:100070000E08052085108600051441208F0B2C28C2
:100080001928FF30900005309100910B4528900B06
:0400900043280800F9
:02400E00F13F80
:00000001FF
